{
  "_format": "hh-sol-artifact-1",
  "contractName": "ERC721Nft",
  "sourceName": "contracts/ASSET.sol",
  "abi": [
    {
      "inputs": [
        {
          "internalType": "address",
          "name": "initialOwner",
          "type": "address"
        },
        {
          "internalType": "string",
          "name": "name",
          "type": "string"
        },
        {
          "internalType": "string",
          "name": "symbol",
          "type": "string"
        },
        {
          "internalType": "string",
          "name": "identifier",
          "type": "string"
        }
      ],
      "stateMutability": "nonpayable",
      "type": "constructor"
    },
    {
      "inputs": [],
      "name": "CheckpointUnorderedInsertion",
      "type": "error"
    },
    {
      "inputs": [],
      "name": "ECDSAInvalidSignature",
      "type": "error"
    },
    {
      "inputs": [
        {
          "internalType": "uint256",
          "name": "length",
          "type": "uint256"
        }
      ],
      "name": "ECDSAInvalidSignatureLength",
      "type": "error"
    },
    {
      "inputs": [
        {
          "internalType": "bytes32",
          "name": "s",
          "type": "bytes32"
        }
      ],
      "name": "ECDSAInvalidSignatureS",
      "type": "error"
    },
    {
      "inputs": [
        {
          "internalType": "uint256",
          "name": "timepoint",
          "type": "uint256"
        },
        {
          "internalType": "uint48",
          "name": "clock",
          "type": "uint48"
        }
      ],
      "name": "ERC5805FutureLookup",
      "type": "error"
    },
    {
      "inputs": [],
      "name": "ERC6372InconsistentClock",
      "type": "error"
    },
    {
      "inputs": [
        {
          "internalType": "address",
          "name": "sender",
          "type": "address"
        },
        {
          "internalType": "uint256",
          "name": "tokenId",
          "type": "uint256"
        },
        {
          "internalType": "address",
          "name": "owner",
          "type": "address"
        }
      ],
      "name": "ERC721IncorrectOwner",
      "type": "error"
    },
    {
      "inputs": [
        {
          "internalType": "address",
          "name": "operator",
          "type": "address"
        },
        {
          "internalType": "uint256",
          "name": "tokenId",
          "type": "uint256"
        }
      ],
      "name": "ERC721InsufficientApproval",
      "type": "error"
    },
    {
      "inputs": [
        {
          "internalType": "address",
          "name": "approver",
          "type": "address"
        }
      ],
      "name": "ERC721InvalidApprover",
      "type": "error"
    },
    {
      "inputs": [
        {
          "internalType": "address",
          "name": "operator",
          "type": "address"
        }
      ],
      "name": "ERC721InvalidOperator",
      "type": "error"
    },
    {
      "inputs": [
        {
          "internalType": "address",
          "name": "owner",
          "type": "address"
        }
      ],
      "name": "ERC721InvalidOwner",
      "type": "error"
    },
    {
      "inputs": [
        {
          "internalType": "address",
          "name": "receiver",
          "type": "address"
        }
      ],
      "name": "ERC721InvalidReceiver",
      "type": "error"
    },
    {
      "inputs": [
        {
          "internalType": "address",
          "name": "sender",
          "type": "address"
        }
      ],
      "name": "ERC721InvalidSender",
      "type": "error"
    },
    {
      "inputs": [
        {
          "internalType": "uint256",
          "name": "tokenId",
          "type": "uint256"
        }
      ],
      "name": "ERC721NonexistentToken",
      "type": "error"
    },
    {
      "inputs": [
        {
          "internalType": "address",
          "name": "account",
          "type": "address"
        },
        {
          "internalType": "uint256",
          "name": "currentNonce",
          "type": "uint256"
        }
      ],
      "name": "InvalidAccountNonce",
      "type": "error"
    },
    {
      "inputs": [],
      "name": "InvalidShortString",
      "type": "error"
    },
    {
      "inputs": [
        {
          "internalType": "address",
          "name": "owner",
          "type": "address"
        }
      ],
      "name": "OwnableInvalidOwner",
      "type": "error"
    },
    {
      "inputs": [
        {
          "internalType": "address",
          "name": "account",
          "type": "address"
        }
      ],
      "name": "OwnableUnauthorizedAccount",
      "type": "error"
    },
    {
      "inputs": [
        {
          "internalType": "uint8",
          "name": "bits",
          "type": "uint8"
        },
        {
          "internalType": "uint256",
          "name": "value",
          "type": "uint256"
        }
      ],
      "name": "SafeCastOverflowedUintDowncast",
      "type": "error"
    },
    {
      "inputs": [
        {
          "internalType": "string",
          "name": "str",
          "type": "string"
        }
      ],
      "name": "StringTooLong",
      "type": "error"
    },
    {
      "inputs": [
        {
          "internalType": "uint256",
          "name": "expiry",
          "type": "uint256"
        }
      ],
      "name": "VotesExpiredSignature",
      "type": "error"
    },
    {
      "anonymous": false,
      "inputs": [
        {
          "indexed": true,
          "internalType": "address",
          "name": "owner",
          "type": "address"
        },
        {
          "indexed": true,
          "internalType": "address",
          "name": "approved",
          "type": "address"
        },
        {
          "indexed": true,
          "internalType": "uint256",
          "name": "tokenId",
          "type": "uint256"
        }
      ],
      "name": "Approval",
      "type": "event"
    },
    {
      "anonymous": false,
      "inputs": [
        {
          "indexed": true,
          "internalType": "address",
          "name": "owner",
          "type": "address"
        },
        {
          "indexed": true,
          "internalType": "address",
          "name": "operator",
          "type": "address"
        },
        {
          "indexed": false,
          "internalType": "bool",
          "name": "approved",
          "type": "bool"
        }
      ],
      "name": "ApprovalForAll",
      "type": "event"
    },
    {
      "anonymous": false,
      "inputs": [
        {
          "indexed": true,
          "internalType": "address",
          "name": "delegator",
          "type": "address"
        },
        {
          "indexed": true,
          "internalType": "address",
          "name": "fromDelegate",
          "type": "address"
        },
        {
          "indexed": true,
          "internalType": "address",
          "name": "toDelegate",
          "type": "address"
        }
      ],
      "name": "DelegateChanged",
      "type": "event"
    },
    {
      "anonymous": false,
      "inputs": [
        {
          "indexed": true,
          "internalType": "address",
          "name": "delegate",
          "type": "address"
        },
        {
          "indexed": false,
          "internalType": "uint256",
          "name": "previousVotes",
          "type": "uint256"
        },
        {
          "indexed": false,
          "internalType": "uint256",
          "name": "newVotes",
          "type": "uint256"
        }
      ],
      "name": "DelegateVotesChanged",
      "type": "event"
    },
    {
      "anonymous": false,
      "inputs": [],
      "name": "EIP712DomainChanged",
      "type": "event"
    },
    {
      "anonymous": false,
      "inputs": [
        {
          "indexed": true,
          "internalType": "address",
          "name": "previousOwner",
          "type": "address"
        },
        {
          "indexed": true,
          "internalType": "address",
          "name": "newOwner",
          "type": "address"
        }
      ],
      "name": "OwnershipTransferred",
      "type": "event"
    },
    {
      "anonymous": false,
      "inputs": [
        {
          "indexed": true,
          "internalType": "address",
          "name": "from",
          "type": "address"
        },
        {
          "indexed": true,
          "internalType": "address",
          "name": "to",
          "type": "address"
        },
        {
          "indexed": true,
          "internalType": "uint256",
          "name": "tokenId",
          "type": "uint256"
        }
      ],
      "name": "Transfer",
      "type": "event"
    },
    {
      "inputs": [],
      "name": "CLOCK_MODE",
      "outputs": [
        {
          "internalType": "string",
          "name": "",
          "type": "string"
        }
      ],
      "stateMutability": "pure",
      "type": "function"
    },
    {
      "inputs": [
        {
          "internalType": "address",
          "name": "to",
          "type": "address"
        },
        {
          "internalType": "uint256",
          "name": "tokenId",
          "type": "uint256"
        }
      ],
      "name": "approve",
      "outputs": [],
      "stateMutability": "nonpayable",
      "type": "function"
    },
    {
      "inputs": [
        {
          "internalType": "address",
          "name": "owner",
          "type": "address"
        }
      ],
      "name": "balanceOf",
      "outputs": [
        {
          "internalType": "uint256",
          "name": "",
          "type": "uint256"
        }
      ],
      "stateMutability": "view",
      "type": "function"
    },
    {
      "inputs": [
        {
          "internalType": "uint256",
          "name": "tokenId",
          "type": "uint256"
        }
      ],
      "name": "burn",
      "outputs": [],
      "stateMutability": "nonpayable",
      "type": "function"
    },
    {
      "inputs": [],
      "name": "clock",
      "outputs": [
        {
          "internalType": "uint48",
          "name": "",
          "type": "uint48"
        }
      ],
      "stateMutability": "view",
      "type": "function"
    },
    {
      "inputs": [
        {
          "internalType": "address",
          "name": "delegatee",
          "type": "address"
        }
      ],
      "name": "delegate",
      "outputs": [],
      "stateMutability": "nonpayable",
      "type": "function"
    },
    {
      "inputs": [
        {
          "internalType": "address",
          "name": "delegatee",
          "type": "address"
        },
        {
          "internalType": "uint256",
          "name": "nonce",
          "type": "uint256"
        },
        {
          "internalType": "uint256",
          "name": "expiry",
          "type": "uint256"
        },
        {
          "internalType": "uint8",
          "name": "v",
          "type": "uint8"
        },
        {
          "internalType": "bytes32",
          "name": "r",
          "type": "bytes32"
        },
        {
          "internalType": "bytes32",
          "name": "s",
          "type": "bytes32"
        }
      ],
      "name": "delegateBySig",
      "outputs": [],
      "stateMutability": "nonpayable",
      "type": "function"
    },
    {
      "inputs": [
        {
          "internalType": "address",
          "name": "account",
          "type": "address"
        }
      ],
      "name": "delegates",
      "outputs": [
        {
          "internalType": "address",
          "name": "",
          "type": "address"
        }
      ],
      "stateMutability": "view",
      "type": "function"
    },
    {
      "inputs": [],
      "name": "eip712Domain",
      "outputs": [
        {
          "internalType": "bytes1",
          "name": "fields",
          "type": "bytes1"
        },
        {
          "internalType": "string",
          "name": "name",
          "type": "string"
        },
        {
          "internalType": "string",
          "name": "version",
          "type": "string"
        },
        {
          "internalType": "uint256",
          "name": "chainId",
          "type": "uint256"
        },
        {
          "internalType": "address",
          "name": "verifyingContract",
          "type": "address"
        },
        {
          "internalType": "bytes32",
          "name": "salt",
          "type": "bytes32"
        },
        {
          "internalType": "uint256[]",
          "name": "extensions",
          "type": "uint256[]"
        }
      ],
      "stateMutability": "view",
      "type": "function"
    },
    {
      "inputs": [
        {
          "internalType": "uint256",
          "name": "tokenId",
          "type": "uint256"
        }
      ],
      "name": "getApproved",
      "outputs": [
        {
          "internalType": "address",
          "name": "",
          "type": "address"
        }
      ],
      "stateMutability": "view",
      "type": "function"
    },
    {
      "inputs": [
        {
          "internalType": "uint256",
          "name": "timepoint",
          "type": "uint256"
        }
      ],
      "name": "getPastTotalSupply",
      "outputs": [
        {
          "internalType": "uint256",
          "name": "",
          "type": "uint256"
        }
      ],
      "stateMutability": "view",
      "type": "function"
    },
    {
      "inputs": [
        {
          "internalType": "address",
          "name": "account",
          "type": "address"
        },
        {
          "internalType": "uint256",
          "name": "timepoint",
          "type": "uint256"
        }
      ],
      "name": "getPastVotes",
      "outputs": [
        {
          "internalType": "uint256",
          "name": "",
          "type": "uint256"
        }
      ],
      "stateMutability": "view",
      "type": "function"
    },
    {
      "inputs": [
        {
          "internalType": "address",
          "name": "account",
          "type": "address"
        }
      ],
      "name": "getVotes",
      "outputs": [
        {
          "internalType": "uint256",
          "name": "",
          "type": "uint256"
        }
      ],
      "stateMutability": "view",
      "type": "function"
    },
    {
      "inputs": [
        {
          "internalType": "address",
          "name": "owner",
          "type": "address"
        },
        {
          "internalType": "address",
          "name": "operator",
          "type": "address"
        }
      ],
      "name": "isApprovedForAll",
      "outputs": [
        {
          "internalType": "bool",
          "name": "",
          "type": "bool"
        }
      ],
      "stateMutability": "view",
      "type": "function"
    },
    {
      "inputs": [],
      "name": "name",
      "outputs": [
        {
          "internalType": "string",
          "name": "",
          "type": "string"
        }
      ],
      "stateMutability": "view",
      "type": "function"
    },
    {
      "inputs": [
        {
          "internalType": "address",
          "name": "owner",
          "type": "address"
        }
      ],
      "name": "nonces",
      "outputs": [
        {
          "internalType": "uint256",
          "name": "",
          "type": "uint256"
        }
      ],
      "stateMutability": "view",
      "type": "function"
    },
    {
      "inputs": [],
      "name": "owner",
      "outputs": [
        {
          "internalType": "address",
          "name": "",
          "type": "address"
        }
      ],
      "stateMutability": "view",
      "type": "function"
    },
    {
      "inputs": [
        {
          "internalType": "uint256",
          "name": "tokenId",
          "type": "uint256"
        }
      ],
      "name": "ownerOf",
      "outputs": [
        {
          "internalType": "address",
          "name": "",
          "type": "address"
        }
      ],
      "stateMutability": "view",
      "type": "function"
    },
    {
      "inputs": [],
      "name": "renounceOwnership",
      "outputs": [],
      "stateMutability": "nonpayable",
      "type": "function"
    },
    {
      "inputs": [
        {
          "internalType": "address",
          "name": "to",
          "type": "address"
        },
        {
          "internalType": "uint256",
          "name": "tokenId",
          "type": "uint256"
        }
      ],
      "name": "safeMint",
      "outputs": [],
      "stateMutability": "nonpayable",
      "type": "function"
    },
    {
      "inputs": [
        {
          "internalType": "address",
          "name": "from",
          "type": "address"
        },
        {
          "internalType": "address",
          "name": "to",
          "type": "address"
        },
        {
          "internalType": "uint256",
          "name": "tokenId",
          "type": "uint256"
        }
      ],
      "name": "safeTransferFrom",
      "outputs": [],
      "stateMutability": "nonpayable",
      "type": "function"
    },
    {
      "inputs": [
        {
          "internalType": "address",
          "name": "from",
          "type": "address"
        },
        {
          "internalType": "address",
          "name": "to",
          "type": "address"
        },
        {
          "internalType": "uint256",
          "name": "tokenId",
          "type": "uint256"
        },
        {
          "internalType": "bytes",
          "name": "data",
          "type": "bytes"
        }
      ],
      "name": "safeTransferFrom",
      "outputs": [],
      "stateMutability": "nonpayable",
      "type": "function"
    },
    {
      "inputs": [
        {
          "internalType": "address",
          "name": "operator",
          "type": "address"
        },
        {
          "internalType": "bool",
          "name": "approved",
          "type": "bool"
        }
      ],
      "name": "setApprovalForAll",
      "outputs": [],
      "stateMutability": "nonpayable",
      "type": "function"
    },
    {
      "inputs": [
        {
          "internalType": "bytes4",
          "name": "interfaceId",
          "type": "bytes4"
        }
      ],
      "name": "supportsInterface",
      "outputs": [
        {
          "internalType": "bool",
          "name": "",
          "type": "bool"
        }
      ],
      "stateMutability": "view",
      "type": "function"
    },
    {
      "inputs": [],
      "name": "symbol",
      "outputs": [
        {
          "internalType": "string",
          "name": "",
          "type": "string"
        }
      ],
      "stateMutability": "view",
      "type": "function"
    },
    {
      "inputs": [
        {
          "internalType": "uint256",
          "name": "tokenId",
          "type": "uint256"
        }
      ],
      "name": "tokenURI",
      "outputs": [
        {
          "internalType": "string",
          "name": "",
          "type": "string"
        }
      ],
      "stateMutability": "view",
      "type": "function"
    },
    {
      "inputs": [
        {
          "internalType": "address",
          "name": "from",
          "type": "address"
        },
        {
          "internalType": "address",
          "name": "to",
          "type": "address"
        },
        {
          "internalType": "uint256",
          "name": "tokenId",
          "type": "uint256"
        }
      ],
      "name": "transferFrom",
      "outputs": [],
      "stateMutability": "nonpayable",
      "type": "function"
    },
    {
      "inputs": [
        {
          "internalType": "address",
          "name": "newOwner",
          "type": "address"
        }
      ],
      "name": "transferOwnership",
      "outputs": [],
      "stateMutability": "nonpayable",
      "type": "function"
    }
  ],
  "bytecode": "0x6101606040523480156200001257600080fd5b5060405162004de238038062004de283398181016040528101906200003891906200058e565b828185858581600090816200004e9190620008a8565b508060019081620000609190620008a8565b505050600073ffffffffffffffffffffffffffffffffffffffff168173ffffffffffffffffffffffffffffffffffffffff1603620000d85760006040517f1e4fbdf7000000000000000000000000000000000000000000000000000000008152600401620000cf9190620009a0565b60405180910390fd5b620000e981620001a460201b60201c565b50620001006007836200026a60201b90919060201c565b61012081815250506200011e6008826200026a60201b90919060201c565b6101408181525050818051906020012060e08181525050808051906020012061010081815250504660a081815250506200015d620002c260201b60201c565b608081815250503073ffffffffffffffffffffffffffffffffffffffff1660c08173ffffffffffffffffffffffffffffffffffffffff168152505050505050505062000b5e565b6000600660009054906101000a900473ffffffffffffffffffffffffffffffffffffffff16905081600660006101000a81548173ffffffffffffffffffffffffffffffffffffffff021916908373ffffffffffffffffffffffffffffffffffffffff1602179055508173ffffffffffffffffffffffffffffffffffffffff168173ffffffffffffffffffffffffffffffffffffffff167f8be0079c531659141344cd1fd0a4f28419497f9722a3daafe3b4186f6b6457e060405160405180910390a35050565b6000602083511015620002905762000288836200031f60201b60201c565b9050620002bc565b82620002a2836200038c60201b60201c565b6000019081620002b39190620008a8565b5060ff60001b90505b92915050565b60007f8b73c3c69bb8fe3d512ecc4cf759cc79239f7b179b0ffacaa9a75d522b39400f60e05161010051463060405160200162000304959493929190620009e9565b60405160208183030381529060405280519060200120905090565b600080829050601f815111156200036f57826040517f305a27a900000000000000000000000000000000000000000000000000000000815260040162000366919062000a98565b60405180910390fd5b8051816200037d9062000aee565b60001c1760001b915050919050565b6000819050919050565b6000604051905090565b600080fd5b600080fd5b600073ffffffffffffffffffffffffffffffffffffffff82169050919050565b6000620003d782620003aa565b9050919050565b620003e981620003ca565b8114620003f557600080fd5b50565b6000815190506200040981620003de565b92915050565b600080fd5b600080fd5b6000601f19601f8301169050919050565b7f4e487b7100000000000000000000000000000000000000000000000000000000600052604160045260246000fd5b620004648262000419565b810181811067ffffffffffffffff821117156200048657620004856200042a565b5b80604052505050565b60006200049b62000396565b9050620004a9828262000459565b919050565b600067ffffffffffffffff821115620004cc57620004cb6200042a565b5b620004d78262000419565b9050602081019050919050565b60005b8381101562000504578082015181840152602081019050620004e7565b60008484015250505050565b6000620005276200052184620004ae565b6200048f565b90508281526020810184848401111562000546576200054562000414565b5b62000553848285620004e4565b509392505050565b600082601f8301126200057357620005726200040f565b5b81516200058584826020860162000510565b91505092915050565b60008060008060808587031215620005ab57620005aa620003a0565b5b6000620005bb87828801620003f8565b945050602085015167ffffffffffffffff811115620005df57620005de620003a5565b5b620005ed878288016200055b565b935050604085015167ffffffffffffffff811115620006115762000610620003a5565b5b6200061f878288016200055b565b925050606085015167ffffffffffffffff811115620006435762000642620003a5565b5b62000651878288016200055b565b91505092959194509250565b600081519050919050565b7f4e487b7100000000000000000000000000000000000000000000000000000000600052602260045260246000fd5b60006002820490506001821680620006b057607f821691505b602082108103620006c657620006c562000668565b5b50919050565b60008190508160005260206000209050919050565b60006020601f8301049050919050565b600082821b905092915050565b600060088302620007307fffffffffffffffffffffffffffffffffffffffffffffffffffffffffffffffff82620006f1565b6200073c8683620006f1565b95508019841693508086168417925050509392505050565b6000819050919050565b6000819050919050565b600062000789620007836200077d8462000754565b6200075e565b62000754565b9050919050565b6000819050919050565b620007a58362000768565b620007bd620007b48262000790565b848454620006fe565b825550505050565b600090565b620007d4620007c5565b620007e18184846200079a565b505050565b5b818110156200080957620007fd600082620007ca565b600181019050620007e7565b5050565b601f82111562000858576200082281620006cc565b6200082d84620006e1565b810160208510156200083d578190505b620008556200084c85620006e1565b830182620007e6565b50505b505050565b600082821c905092915050565b60006200087d600019846008026200085d565b1980831691505092915050565b60006200089883836200086a565b9150826002028217905092915050565b620008b3826200065d565b67ffffffffffffffff811115620008cf57620008ce6200042a565b5b620008db825462000697565b620008e88282856200080d565b600060209050601f8311600181146200092057600084156200090b578287015190505b6200091785826200088a565b86555062000987565b601f1984166200093086620006cc565b60005b828110156200095a5784890151825560018201915060208501945060208101905062000933565b868310156200097a578489015162000976601f8916826200086a565b8355505b6001600288020188555050505b505050505050565b6200099a81620003ca565b82525050565b6000602082019050620009b760008301846200098f565b92915050565b6000819050919050565b620009d281620009bd565b82525050565b620009e38162000754565b82525050565b600060a08201905062000a006000830188620009c7565b62000a0f6020830187620009c7565b62000a1e6040830186620009c7565b62000a2d6060830185620009d8565b62000a3c60808301846200098f565b9695505050505050565b600082825260208201905092915050565b600062000a64826200065d565b62000a70818562000a46565b935062000a82818560208601620004e4565b62000a8d8162000419565b840191505092915050565b6000602082019050818103600083015262000ab4818462000a57565b905092915050565b600081519050919050565b6000819050602082019050919050565b600062000ae58251620009bd565b80915050919050565b600062000afb8262000abc565b8262000b078462000ac7565b905062000b148162000ad7565b9250602082101562000b575762000b527fffffffffffffffffffffffffffffffffffffffffffffffffffffffffffffffff83602003600802620006f1565b831692505b5050919050565b60805160a05160c05160e05161010051610120516101405161422962000bb960003960006115b50152600061157a01526000612d9c01526000612d7b015260006122250152600061227b015260006122a401526142296000f3fe608060405234801561001057600080fd5b50600436106101c45760003560e01c80637ecebe00116100f9578063a144819411610097578063c3cda52011610071578063c3cda5201461051d578063c87b56dd14610539578063e985e9c514610569578063f2fde38b14610599576101c4565b8063a1448194146104c9578063a22cb465146104e5578063b88d4fde14610501576101c4565b80638e539e8c116100d35780638e539e8c1461042d57806391ddadf41461045d57806395d89b411461047b5780639ab24eb014610499576101c4565b80637ecebe00146103bb57806384b0196e146103eb5780638da5cb5b1461040f576101c4565b806342966c68116101665780635c19a95c116101405780635c19a95c146103355780636352211e1461035157806370a0823114610381578063715018a6146103b1576101c4565b806342966c68146102cb5780634bf5d7e9146102e7578063587cde1e14610305576101c4565b8063095ea7b3116101a2578063095ea7b31461024757806323b872dd146102635780633a46b1a81461027f57806342842e0e146102af576101c4565b806301ffc9a7146101c957806306fdde03146101f9578063081812fc14610217575b600080fd5b6101e360048036038101906101de91906133cb565b6105b5565b6040516101f09190613413565b60405180910390f35b610201610697565b60405161020e91906134be565b60405180910390f35b610231600480360381019061022c9190613516565b610729565b60405161023e9190613584565b60405180910390f35b610261600480360381019061025c91906135cb565b610745565b005b61027d6004803603810190610278919061360b565b61075b565b005b610299600480360381019061029491906135cb565b61085d565b6040516102a6919061366d565b60405180910390f35b6102c960048036038101906102c4919061360b565b610936565b005b6102e560048036038101906102e09190613516565b610956565b005b6102ef61096d565b6040516102fc91906134be565b60405180910390f35b61031f600480360381019061031a9190613688565b6109aa565b60405161032c9190613584565b60405180910390f35b61034f600480360381019061034a9190613688565b610a13565b005b61036b60048036038101906103669190613516565b610a2d565b6040516103789190613584565b60405180910390f35b61039b60048036038101906103969190613688565b610a3f565b6040516103a8919061366d565b60405180910390f35b6103b9610af9565b005b6103d560048036038101906103d09190613688565b610b0d565b6040516103e2919061366d565b60405180910390f35b6103f3610b56565b60405161040697969594939291906137c7565b60405180910390f35b610417610c00565b6040516104249190613584565b60405180910390f35b61044760048036038101906104429190613516565b610c2a565b604051610454919061366d565b60405180910390f35b610465610cc5565b604051610472919061386c565b60405180910390f35b610483610ccd565b60405161049091906134be565b60405180910390f35b6104b360048036038101906104ae9190613688565b610d5f565b6040516104c0919061366d565b60405180910390f35b6104e360048036038101906104de91906135cb565b610dcb565b005b6104ff60048036038101906104fa91906138b3565b610de1565b005b61051b60048036038101906105169190613a28565b610df7565b005b61053760048036038101906105329190613b10565b610e14565b005b610553600480360381019061054e9190613516565b610eda565b60405161056091906134be565b60405180910390f35b610583600480360381019061057e9190613b9d565b610f43565b6040516105909190613413565b60405180910390f35b6105b360048036038101906105ae9190613688565b610fd7565b005b60007f80ac58cd000000000000000000000000000000000000000000000000000000007bffffffffffffffffffffffffffffffffffffffffffffffffffffffff1916827bffffffffffffffffffffffffffffffffffffffffffffffffffffffff1916148061068057507f5b5e139f000000000000000000000000000000000000000000000000000000007bffffffffffffffffffffffffffffffffffffffffffffffffffffffff1916827bffffffffffffffffffffffffffffffffffffffffffffffffffffffff1916145b80610690575061068f8261105d565b5b9050919050565b6060600080546106a690613c0c565b80601f01602080910402602001604051908101604052809291908181526020018280546106d290613c0c565b801561071f5780601f106106f45761010080835404028352916020019161071f565b820191906000526020600020905b81548152906001019060200180831161070257829003601f168201915b5050505050905090565b6000610734826110c7565b5061073e8261114f565b9050919050565b610757828261075261118c565b611194565b5050565b600073ffffffffffffffffffffffffffffffffffffffff168273ffffffffffffffffffffffffffffffffffffffff16036107cd5760006040517f64a0ae920000000000000000000000000000000000000000000000000000000081526004016107c49190613584565b60405180910390fd5b60006107e183836107dc61118c565b6111a6565b90508373ffffffffffffffffffffffffffffffffffffffff168173ffffffffffffffffffffffffffffffffffffffff1614610857578382826040517f64283d7b00000000000000000000000000000000000000000000000000000000815260040161084e93929190613c3d565b60405180910390fd5b50505050565b600080610868610cc5565b90508065ffffffffffff1683106108b85782816040517fecd3f81e0000000000000000000000000000000000000000000000000000000081526004016108af929190613c74565b60405180910390fd5b6109116108c4846111bc565b600b60008773ffffffffffffffffffffffffffffffffffffffff1673ffffffffffffffffffffffffffffffffffffffff16815260200190815260200160002061121690919063ffffffff16565b79ffffffffffffffffffffffffffffffffffffffffffffffffffff1691505092915050565b61095183838360405180602001604052806000815250610df7565b505050565b61096960008261096461118c565b6111a6565b5050565b60606040518060400160405280600e81526020017f6d6f64653d74696d657374616d70000000000000000000000000000000000000815250905090565b6000600a60008373ffffffffffffffffffffffffffffffffffffffff1673ffffffffffffffffffffffffffffffffffffffff16815260200190815260200160002060009054906101000a900473ffffffffffffffffffffffffffffffffffffffff169050919050565b6000610a1d61118c565b9050610a298183611310565b5050565b6000610a38826110c7565b9050919050565b60008073ffffffffffffffffffffffffffffffffffffffff168273ffffffffffffffffffffffffffffffffffffffff1603610ab25760006040517f89c62b64000000000000000000000000000000000000000000000000000000008152600401610aa99190613584565b60405180910390fd5b600360008373ffffffffffffffffffffffffffffffffffffffff1673ffffffffffffffffffffffffffffffffffffffff168152602001908152602001600020549050919050565b610b01611424565b610b0b60006114ab565b565b6000600960008373ffffffffffffffffffffffffffffffffffffffff1673ffffffffffffffffffffffffffffffffffffffff168152602001908152602001600020549050919050565b600060608060008060006060610b6a611571565b610b726115ac565b46306000801b600067ffffffffffffffff811115610b9357610b926138fd565b5b604051908082528060200260200182016040528015610bc15781602001602082028036833780820191505090505b507f0f00000000000000000000000000000000000000000000000000000000000000959493929190965096509650965096509650965090919293949596565b6000600660009054906101000a900473ffffffffffffffffffffffffffffffffffffffff16905090565b600080610c35610cc5565b90508065ffffffffffff168310610c855782816040517fecd3f81e000000000000000000000000000000000000000000000000000000008152600401610c7c929190613c74565b60405180910390fd5b610ca1610c91846111bc565b600c61121690919063ffffffff16565b79ffffffffffffffffffffffffffffffffffffffffffffffffffff16915050919050565b600042905090565b606060018054610cdc90613c0c565b80601f0160208091040260200160405190810160405280929190818152602001828054610d0890613c0c565b8015610d555780601f10610d2a57610100808354040283529160200191610d55565b820191906000526020600020905b815481529060010190602001808311610d3857829003601f168201915b5050505050905090565b6000610da8600b60008473ffffffffffffffffffffffffffffffffffffffff1673ffffffffffffffffffffffffffffffffffffffff1681526020019081526020016000206115e7565b79ffffffffffffffffffffffffffffffffffffffffffffffffffff169050919050565b610dd3611424565b610ddd828261164f565b5050565b610df3610dec61118c565b838361166d565b5050565b610e0284848461075b565b610e0e848484846117dc565b50505050565b83421115610e5957836040517f4683af0e000000000000000000000000000000000000000000000000000000008152600401610e50919061366d565b60405180910390fd5b6000610ebb610eb37fe48329057bfd03d55e49b547132e39cffd9c1820ad7b9d4c5307691425d15adf898989604051602001610e989493929190613c9d565b60405160208183030381529060405280519060200120611993565b8585856119ad565b9050610ec781876119dd565b610ed18188611310565b50505050505050565b6060610ee5826110c7565b506000610ef0611a35565b90506000815111610f105760405180602001604052806000815250610f3b565b80610f1a84611a4c565b604051602001610f2b929190613d1e565b6040516020818303038152906040525b915050919050565b6000600560008473ffffffffffffffffffffffffffffffffffffffff1673ffffffffffffffffffffffffffffffffffffffff16815260200190815260200160002060008373ffffffffffffffffffffffffffffffffffffffff1673ffffffffffffffffffffffffffffffffffffffff16815260200190815260200160002060009054906101000a900460ff16905092915050565b610fdf611424565b600073ffffffffffffffffffffffffffffffffffffffff168173ffffffffffffffffffffffffffffffffffffffff16036110515760006040517f1e4fbdf70000000000000000000000000000000000000000000000000000000081526004016110489190613584565b60405180910390fd5b61105a816114ab565b50565b60007f01ffc9a7000000000000000000000000000000000000000000000000000000007bffffffffffffffffffffffffffffffffffffffffffffffffffffffff1916827bffffffffffffffffffffffffffffffffffffffffffffffffffffffff1916149050919050565b6000806110d383611b1a565b9050600073ffffffffffffffffffffffffffffffffffffffff168173ffffffffffffffffffffffffffffffffffffffff160361114657826040517f7e27328900000000000000000000000000000000000000000000000000000000815260040161113d919061366d565b60405180910390fd5b80915050919050565b60006004600083815260200190815260200160002060009054906101000a900473ffffffffffffffffffffffffffffffffffffffff169050919050565b600033905090565b6111a18383836001611b57565b505050565b60006111b3848484611d1c565b90509392505050565b600065ffffffffffff801682111561120e576030826040517f6dfcc650000000000000000000000000000000000000000000000000000000008152600401611205929190613d87565b60405180910390fd5b819050919050565b60008083600001805490509050600080829050600583111561129e57600061123d84611d43565b846112489190613ddf565b90506112578760000182611e3c565b60000160009054906101000a900465ffffffffffff1665ffffffffffff168665ffffffffffff16101561128c5780915061129c565b6001816112999190613e13565b92505b505b60006112af87600001878585611e51565b905060008114611301576112d2876000016001836112cd9190613ddf565b611e3c565b60000160069054906101000a900479ffffffffffffffffffffffffffffffffffffffffffffffffffff16611304565b60005b94505050505092915050565b600061131b836109aa565b905081600a60008573ffffffffffffffffffffffffffffffffffffffff1673ffffffffffffffffffffffffffffffffffffffff16815260200190815260200160002060006101000a81548173ffffffffffffffffffffffffffffffffffffffff021916908373ffffffffffffffffffffffffffffffffffffffff1602179055508173ffffffffffffffffffffffffffffffffffffffff168173ffffffffffffffffffffffffffffffffffffffff168473ffffffffffffffffffffffffffffffffffffffff167f3134e8a2e6d97e929a7e54011ea5485d7d196dd5f0ba4d4ef95803e8e3fc257f60405160405180910390a461141f818361141a86611eca565b611edc565b505050565b61142c61118c565b73ffffffffffffffffffffffffffffffffffffffff1661144a610c00565b73ffffffffffffffffffffffffffffffffffffffff16146114a95761146d61118c565b6040517f118cdaa70000000000000000000000000000000000000000000000000000000081526004016114a09190613584565b60405180910390fd5b565b6000600660009054906101000a900473ffffffffffffffffffffffffffffffffffffffff16905081600660006101000a81548173ffffffffffffffffffffffffffffffffffffffff021916908373ffffffffffffffffffffffffffffffffffffffff1602179055508173ffffffffffffffffffffffffffffffffffffffff168173ffffffffffffffffffffffffffffffffffffffff167f8be0079c531659141344cd1fd0a4f28419497f9722a3daafe3b4186f6b6457e060405160405180910390a35050565b60606115a760077f000000000000000000000000000000000000000000000000000000000000000061215590919063ffffffff16565b905090565b60606115e260087f000000000000000000000000000000000000000000000000000000000000000061215590919063ffffffff16565b905090565b600080826000018054905090506000811461164457611615836000016001836116109190613ddf565b611e3c565b60000160069054906101000a900479ffffffffffffffffffffffffffffffffffffffffffffffffffff16611647565b60005b915050919050565b611669828260405180602001604052806000815250612205565b5050565b600073ffffffffffffffffffffffffffffffffffffffff168273ffffffffffffffffffffffffffffffffffffffff16036116de57816040517f5b08ba180000000000000000000000000000000000000000000000000000000081526004016116d59190613584565b60405180910390fd5b80600560008573ffffffffffffffffffffffffffffffffffffffff1673ffffffffffffffffffffffffffffffffffffffff16815260200190815260200160002060008473ffffffffffffffffffffffffffffffffffffffff1673ffffffffffffffffffffffffffffffffffffffff16815260200190815260200160002060006101000a81548160ff0219169083151502179055508173ffffffffffffffffffffffffffffffffffffffff168373ffffffffffffffffffffffffffffffffffffffff167f17307eab39ab6107e8899845ad3d59bd9653f200f220920489ca2b5937696c31836040516117cf9190613413565b60405180910390a3505050565b60008373ffffffffffffffffffffffffffffffffffffffff163b111561198d578273ffffffffffffffffffffffffffffffffffffffff1663150b7a0261182061118c565b8685856040518563ffffffff1660e01b81526004016118429493929190613e9c565b6020604051808303816000875af192505050801561187e57506040513d601f19601f8201168201806040525081019061187b9190613efd565b60015b611902573d80600081146118ae576040519150601f19603f3d011682016040523d82523d6000602084013e6118b3565b606091505b5060008151036118fa57836040517f64a0ae920000000000000000000000000000000000000000000000000000000081526004016118f19190613584565b60405180910390fd5b805181602001fd5b63150b7a0260e01b7bffffffffffffffffffffffffffffffffffffffffffffffffffffffff1916817bffffffffffffffffffffffffffffffffffffffffffffffffffffffff19161461198b57836040517f64a0ae920000000000000000000000000000000000000000000000000000000081526004016119829190613584565b60405180910390fd5b505b50505050565b60006119a66119a0612221565b836122d8565b9050919050565b6000806000806119bf88888888612319565b9250925092506119cf828261240d565b829350505050949350505050565b60006119e883612571565b9050808214611a305782816040517f752d88c0000000000000000000000000000000000000000000000000000000008152600401611a27929190613f2a565b60405180910390fd5b505050565b606060405180602001604052806000815250905090565b606060006001611a5b846125c8565b01905060008167ffffffffffffffff811115611a7a57611a796138fd565b5b6040519080825280601f01601f191660200182016040528015611aac5781602001600182028036833780820191505090505b509050600082602001820190505b600115611b0f578080600190039150507f3031323334353637383961626364656600000000000000000000000000000000600a86061a8153600a8581611b0357611b02613f53565b5b04945060008503611aba575b819350505050919050565b60006002600083815260200190815260200160002060009054906101000a900473ffffffffffffffffffffffffffffffffffffffff169050919050565b8080611b905750600073ffffffffffffffffffffffffffffffffffffffff168273ffffffffffffffffffffffffffffffffffffffff1614155b15611cc4576000611ba0846110c7565b9050600073ffffffffffffffffffffffffffffffffffffffff168373ffffffffffffffffffffffffffffffffffffffff1614158015611c0b57508273ffffffffffffffffffffffffffffffffffffffff168173ffffffffffffffffffffffffffffffffffffffff1614155b8015611c1e5750611c1c8184610f43565b155b15611c6057826040517fa9fbf51f000000000000000000000000000000000000000000000000000000008152600401611c579190613584565b60405180910390fd5b8115611cc257838573ffffffffffffffffffffffffffffffffffffffff168273ffffffffffffffffffffffffffffffffffffffff167f8c5be1e5ebec7d5bd14f71427d1e84f3dd0314c0f7b2291e5b200ac8c7c3b92560405160405180910390a45b505b836004600085815260200190815260200160002060006101000a81548173ffffffffffffffffffffffffffffffffffffffff021916908373ffffffffffffffffffffffffffffffffffffffff16021790555050505050565b600080611d2a85858561271b565b9050611d3881866001612935565b809150509392505050565b6000808203611d555760009050611e37565b60006001611d62846129ef565b901c6001901b90506001818481611d7c57611d7b613f53565b5b048201901c90506001818481611d9557611d94613f53565b5b048201901c90506001818481611dae57611dad613f53565b5b048201901c90506001818481611dc757611dc6613f53565b5b048201901c90506001818481611de057611ddf613f53565b5b048201901c90506001818481611df957611df8613f53565b5b048201901c90506001818481611e1257611e11613f53565b5b048201901c9050611e3381828581611e2d57611e2c613f53565b5b04612ad0565b9150505b919050565b60008260005281602060002001905092915050565b60005b81831015611ebf576000611e688484612ae9565b90508465ffffffffffff16611e7d8783611e3c565b60000160009054906101000a900465ffffffffffff1665ffffffffffff161115611ea957809250611eb9565b600181611eb69190613e13565b93505b50611e54565b819050949350505050565b6000611ed582610a3f565b9050919050565b8173ffffffffffffffffffffffffffffffffffffffff168373ffffffffffffffffffffffffffffffffffffffff1614158015611f185750600081115b1561215057600073ffffffffffffffffffffffffffffffffffffffff168373ffffffffffffffffffffffffffffffffffffffff161461203657600080611fa7600b60008773ffffffffffffffffffffffffffffffffffffffff1673ffffffffffffffffffffffffffffffffffffffff168152602001908152602001600020612b0f611fa286612b25565b612b93565b79ffffffffffffffffffffffffffffffffffffffffffffffffffff16915079ffffffffffffffffffffffffffffffffffffffffffffffffffff1691508473ffffffffffffffffffffffffffffffffffffffff167fdec2bacdd2f05b59de34da9b523dff8be42e5e38e818c82fdb0bae774387a724838360405161202b929190613f82565b60405180910390a250505b600073ffffffffffffffffffffffffffffffffffffffff168273ffffffffffffffffffffffffffffffffffffffff161461214f576000806120c0600b60008673ffffffffffffffffffffffffffffffffffffffff1673ffffffffffffffffffffffffffffffffffffffff168152602001908152602001600020612bd36120bb86612b25565b612b93565b79ffffffffffffffffffffffffffffffffffffffffffffffffffff16915079ffffffffffffffffffffffffffffffffffffffffffffffffffff1691508373ffffffffffffffffffffffffffffffffffffffff167fdec2bacdd2f05b59de34da9b523dff8be42e5e38e818c82fdb0bae774387a7248383604051612144929190613f82565b60405180910390a250505b5b505050565b606060ff60001b83146121725761216b83612be9565b90506121ff565b81805461217e90613c0c565b80601f01602080910402602001604051908101604052809291908181526020018280546121aa90613c0c565b80156121f75780601f106121cc576101008083540402835291602001916121f7565b820191906000526020600020905b8154815290600101906020018083116121da57829003601f168201915b505050505090505b92915050565b61220f8383612c5d565b61221c60008484846117dc565b505050565b60007f000000000000000000000000000000000000000000000000000000000000000073ffffffffffffffffffffffffffffffffffffffff163073ffffffffffffffffffffffffffffffffffffffff1614801561229d57507f000000000000000000000000000000000000000000000000000000000000000046145b156122ca577f000000000000000000000000000000000000000000000000000000000000000090506122d5565b6122d2612d56565b90505b90565b60006040517f190100000000000000000000000000000000000000000000000000000000000081528360028201528260228201526042812091505092915050565b60008060007f7fffffffffffffffffffffffffffffff5d576e7357a4501ddfe92f46681b20a08460001c1115612359576000600385925092509250612403565b60006001888888886040516000815260200160405260405161237e9493929190613fba565b6020604051602081039080840390855afa1580156123a0573d6000803e3d6000fd5b505050602060405103519050600073ffffffffffffffffffffffffffffffffffffffff168173ffffffffffffffffffffffffffffffffffffffff16036123f457600060016000801b93509350935050612403565b8060008060001b935093509350505b9450945094915050565b6000600381111561242157612420613fff565b5b82600381111561243457612433613fff565b5b031561256d576001600381111561244e5761244d613fff565b5b82600381111561246157612460613fff565b5b03612498576040517ff645eedf00000000000000000000000000000000000000000000000000000000815260040160405180910390fd5b600260038111156124ac576124ab613fff565b5b8260038111156124bf576124be613fff565b5b03612504578060001c6040517ffce698f70000000000000000000000000000000000000000000000000000000081526004016124fb919061366d565b60405180910390fd5b60038081111561251757612516613fff565b5b82600381111561252a57612529613fff565b5b0361256c57806040517fd78bce0c000000000000000000000000000000000000000000000000000000008152600401612563919061402e565b60405180910390fd5b5b5050565b6000600960008373ffffffffffffffffffffffffffffffffffffffff1673ffffffffffffffffffffffffffffffffffffffff1681526020019081526020016000206000815480929190600101919050559050919050565b600080600090507a184f03e93ff9f4daa797ed6e38ed64bf6a1f0100000000000000008310612626577a184f03e93ff9f4daa797ed6e38ed64bf6a1f010000000000000000838161261c5761261b613f53565b5b0492506040810190505b6d04ee2d6d415b85acef81000000008310612663576d04ee2d6d415b85acef8100000000838161265957612658613f53565b5b0492506020810190505b662386f26fc10000831061269257662386f26fc10000838161268857612687613f53565b5b0492506010810190505b6305f5e10083106126bb576305f5e10083816126b1576126b0613f53565b5b0492506008810190505b61271083106126e05761271083816126d6576126d5613f53565b5b0492506004810190505b6064831061270357606483816126f9576126f8613f53565b5b0492506002810190505b600a8310612712576001810190505b80915050919050565b60008061272784611b1a565b9050600073ffffffffffffffffffffffffffffffffffffffff168373ffffffffffffffffffffffffffffffffffffffff161461276957612768818486612dec565b5b600073ffffffffffffffffffffffffffffffffffffffff168173ffffffffffffffffffffffffffffffffffffffff16146127fa576127ab600085600080611b57565b6001600360008373ffffffffffffffffffffffffffffffffffffffff1673ffffffffffffffffffffffffffffffffffffffff168152602001908152602001600020600082825403925050819055505b600073ffffffffffffffffffffffffffffffffffffffff168573ffffffffffffffffffffffffffffffffffffffff161461287d576001600360008773ffffffffffffffffffffffffffffffffffffffff1673ffffffffffffffffffffffffffffffffffffffff168152602001908152602001600020600082825401925050819055505b846002600086815260200190815260200160002060006101000a81548173ffffffffffffffffffffffffffffffffffffffff021916908373ffffffffffffffffffffffffffffffffffffffff160217905550838573ffffffffffffffffffffffffffffffffffffffff168273ffffffffffffffffffffffffffffffffffffffff167fddf252ad1be2c89b69c2b068fc378daa952ba7f163c4a11628f55a4df523b3ef60405160405180910390a4809150509392505050565b600073ffffffffffffffffffffffffffffffffffffffff168373ffffffffffffffffffffffffffffffffffffffff16036129825761297f600c612bd361297a84612b25565b612b93565b50505b600073ffffffffffffffffffffffffffffffffffffffff168273ffffffffffffffffffffffffffffffffffffffff16036129cf576129cc600c612b0f6129c784612b25565b612b93565b50505b6129ea6129db846109aa565b6129e4846109aa565b83611edc565b505050565b600080600090506000608084901c1115612a1157608083901c92506080810190505b6000604084901c1115612a2c57604083901c92506040810190505b6000602084901c1115612a4757602083901c92506020810190505b6000601084901c1115612a6257601083901c92506010810190505b6000600884901c1115612a7d57600883901c92506008810190505b6000600484901c1115612a9857600483901c92506004810190505b6000600284901c1115612ab357600283901c92506002810190505b6000600184901c1115612ac7576001810190505b80915050919050565b6000818310612adf5781612ae1565b825b905092915050565b60006002828418612afa9190614049565b828416612b079190613e13565b905092915050565b60008183612b1d91906140a0565b905092915050565b600079ffffffffffffffffffffffffffffffffffffffffffffffffffff8016821115612b8b5760d0826040517f6dfcc650000000000000000000000000000000000000000000000000000000008152600401612b82929190614129565b60405180910390fd5b819050919050565b600080612bc7612ba1610cc5565b612bb7612bad886115e7565b868863ffffffff16565b87612eb09092919063ffffffff16565b91509150935093915050565b60008183612be19190614152565b905092915050565b60606000612bf683612ecd565b90506000602067ffffffffffffffff811115612c1557612c146138fd565b5b6040519080825280601f01601f191660200182016040528015612c475781602001600182028036833780820191505090505b5090508181528360208201528092505050919050565b600073ffffffffffffffffffffffffffffffffffffffff168273ffffffffffffffffffffffffffffffffffffffff1603612ccf5760006040517f64a0ae92000000000000000000000000000000000000000000000000000000008152600401612cc69190613584565b60405180910390fd5b6000612cdd838360006111a6565b9050600073ffffffffffffffffffffffffffffffffffffffff168173ffffffffffffffffffffffffffffffffffffffff1614612d515760006040517f73c6ac6e000000000000000000000000000000000000000000000000000000008152600401612d489190613584565b60405180910390fd5b505050565b60007f8b73c3c69bb8fe3d512ecc4cf759cc79239f7b179b0ffacaa9a75d522b39400f7f00000000000000000000000000000000000000000000000000000000000000007f00000000000000000000000000000000000000000000000000000000000000004630604051602001612dd19594939291906141a0565b60405160208183030381529060405280519060200120905090565b612df7838383612f1d565b612eab57600073ffffffffffffffffffffffffffffffffffffffff168373ffffffffffffffffffffffffffffffffffffffff1603612e6c57806040517f7e273289000000000000000000000000000000000000000000000000000000008152600401612e63919061366d565b60405180910390fd5b81816040517f177e802f000000000000000000000000000000000000000000000000000000008152600401612ea2929190613f2a565b60405180910390fd5b505050565b600080612ec1856000018585612fde565b91509150935093915050565b60008060ff8360001c169050601f811115612f14576040517fb3512b0c00000000000000000000000000000000000000000000000000000000815260040160405180910390fd5b80915050919050565b60008073ffffffffffffffffffffffffffffffffffffffff168373ffffffffffffffffffffffffffffffffffffffff1614158015612fd557508273ffffffffffffffffffffffffffffffffffffffff168473ffffffffffffffffffffffffffffffffffffffff161480612f965750612f958484610f43565b5b80612fd457508273ffffffffffffffffffffffffffffffffffffffff16612fbc8361114f565b73ffffffffffffffffffffffffffffffffffffffff16145b5b90509392505050565b600080600085805490509050600081111561326f57600061300b876001846130069190613ddf565b611e3c565b6040518060400160405290816000820160009054906101000a900465ffffffffffff1665ffffffffffff1665ffffffffffff1681526020016000820160069054906101000a900479ffffffffffffffffffffffffffffffffffffffffffffffffffff1679ffffffffffffffffffffffffffffffffffffffffffffffffffff1679ffffffffffffffffffffffffffffffffffffffffffffffffffff168152505090508565ffffffffffff16816000015165ffffffffffff1611156130fa576040517f2520601d00000000000000000000000000000000000000000000000000000000815260040160405180910390fd5b8565ffffffffffff16816000015165ffffffffffff160361317e578461312c886001856131279190613ddf565b611e3c565b60000160066101000a81548179ffffffffffffffffffffffffffffffffffffffffffffffffffff021916908379ffffffffffffffffffffffffffffffffffffffffffffffffffff16021790555061325e565b8660405180604001604052808865ffffffffffff1681526020018779ffffffffffffffffffffffffffffffffffffffffffffffffffff168152509080600181540180825580915050600190039060005260206000200160009091909190915060008201518160000160006101000a81548165ffffffffffff021916908365ffffffffffff16021790555060208201518160000160066101000a81548179ffffffffffffffffffffffffffffffffffffffffffffffffffff021916908379ffffffffffffffffffffffffffffffffffffffffffffffffffff16021790555050505b806020015185935093505050613357565b8560405180604001604052808765ffffffffffff1681526020018679ffffffffffffffffffffffffffffffffffffffffffffffffffff168152509080600181540180825580915050600190039060005260206000200160009091909190915060008201518160000160006101000a81548165ffffffffffff021916908365ffffffffffff16021790555060208201518160000160066101000a81548179ffffffffffffffffffffffffffffffffffffffffffffffffffff021916908379ffffffffffffffffffffffffffffffffffffffffffffffffffff160217905550505060008492509250505b935093915050565b6000604051905090565b600080fd5b600080fd5b60007fffffffff0000000000000000000000000000000000000000000000000000000082169050919050565b6133a881613373565b81146133b357600080fd5b50565b6000813590506133c58161339f565b92915050565b6000602082840312156133e1576133e0613369565b5b60006133ef848285016133b6565b91505092915050565b60008115159050919050565b61340d816133f8565b82525050565b60006020820190506134286000830184613404565b92915050565b600081519050919050565b600082825260208201905092915050565b60005b8381101561346857808201518184015260208101905061344d565b60008484015250505050565b6000601f19601f8301169050919050565b60006134908261342e565b61349a8185613439565b93506134aa81856020860161344a565b6134b381613474565b840191505092915050565b600060208201905081810360008301526134d88184613485565b905092915050565b6000819050919050565b6134f3816134e0565b81146134fe57600080fd5b50565b600081359050613510816134ea565b92915050565b60006020828403121561352c5761352b613369565b5b600061353a84828501613501565b91505092915050565b600073ffffffffffffffffffffffffffffffffffffffff82169050919050565b600061356e82613543565b9050919050565b61357e81613563565b82525050565b60006020820190506135996000830184613575565b92915050565b6135a881613563565b81146135b357600080fd5b50565b6000813590506135c58161359f565b92915050565b600080604083850312156135e2576135e1613369565b5b60006135f0858286016135b6565b925050602061360185828601613501565b9150509250929050565b60008060006060848603121561362457613623613369565b5b6000613632868287016135b6565b9350506020613643868287016135b6565b925050604061365486828701613501565b9150509250925092565b613667816134e0565b82525050565b6000602082019050613682600083018461365e565b92915050565b60006020828403121561369e5761369d613369565b5b60006136ac848285016135b6565b91505092915050565b60007fff0000000000000000000000000000000000000000000000000000000000000082169050919050565b6136ea816136b5565b82525050565b6000819050919050565b613703816136f0565b82525050565b600081519050919050565b600082825260208201905092915050565b6000819050602082019050919050565b61373e816134e0565b82525050565b60006137508383613735565b60208301905092915050565b6000602082019050919050565b600061377482613709565b61377e8185613714565b935061378983613725565b8060005b838110156137ba5781516137a18882613744565b97506137ac8361375c565b92505060018101905061378d565b5085935050505092915050565b600060e0820190506137dc600083018a6136e1565b81810360208301526137ee8189613485565b905081810360408301526138028188613485565b9050613811606083018761365e565b61381e6080830186613575565b61382b60a08301856136fa565b81810360c083015261383d8184613769565b905098975050505050505050565b600065ffffffffffff82169050919050565b6138668161384b565b82525050565b6000602082019050613881600083018461385d565b92915050565b613890816133f8565b811461389b57600080fd5b50565b6000813590506138ad81613887565b92915050565b600080604083850312156138ca576138c9613369565b5b60006138d8858286016135b6565b92505060206138e98582860161389e565b9150509250929050565b600080fd5b600080fd5b7f4e487b7100000000000000000000000000000000000000000000000000000000600052604160045260246000fd5b61393582613474565b810181811067ffffffffffffffff82111715613954576139536138fd565b5b80604052505050565b600061396761335f565b9050613973828261392c565b919050565b600067ffffffffffffffff821115613993576139926138fd565b5b61399c82613474565b9050602081019050919050565b82818337600083830152505050565b60006139cb6139c684613978565b61395d565b9050828152602081018484840111156139e7576139e66138f8565b5b6139f28482856139a9565b509392505050565b600082601f830112613a0f57613a0e6138f3565b5b8135613a1f8482602086016139b8565b91505092915050565b60008060008060808587031215613a4257613a41613369565b5b6000613a50878288016135b6565b9450506020613a61878288016135b6565b9350506040613a7287828801613501565b925050606085013567ffffffffffffffff811115613a9357613a9261336e565b5b613a9f878288016139fa565b91505092959194509250565b600060ff82169050919050565b613ac181613aab565b8114613acc57600080fd5b50565b600081359050613ade81613ab8565b92915050565b613aed816136f0565b8114613af857600080fd5b50565b600081359050613b0a81613ae4565b92915050565b60008060008060008060c08789031215613b2d57613b2c613369565b5b6000613b3b89828a016135b6565b9650506020613b4c89828a01613501565b9550506040613b5d89828a01613501565b9450506060613b6e89828a01613acf565b9350506080613b7f89828a01613afb565b92505060a0613b9089828a01613afb565b9150509295509295509295565b60008060408385031215613bb457613bb3613369565b5b6000613bc2858286016135b6565b9250506020613bd3858286016135b6565b9150509250929050565b7f4e487b7100000000000000000000000000000000000000000000000000000000600052602260045260246000fd5b60006002820490506001821680613c2457607f821691505b602082108103613c3757613c36613bdd565b5b50919050565b6000606082019050613c526000830186613575565b613c5f602083018561365e565b613c6c6040830184613575565b949350505050565b6000604082019050613c89600083018561365e565b613c96602083018461385d565b9392505050565b6000608082019050613cb260008301876136fa565b613cbf6020830186613575565b613ccc604083018561365e565b613cd9606083018461365e565b95945050505050565b600081905092915050565b6000613cf88261342e565b613d028185613ce2565b9350613d1281856020860161344a565b80840191505092915050565b6000613d2a8285613ced565b9150613d368284613ced565b91508190509392505050565b6000819050919050565b6000819050919050565b6000613d71613d6c613d6784613d42565b613d4c565b613aab565b9050919050565b613d8181613d56565b82525050565b6000604082019050613d9c6000830185613d78565b613da9602083018461365e565b9392505050565b7f4e487b7100000000000000000000000000000000000000000000000000000000600052601160045260246000fd5b6000613dea826134e0565b9150613df5836134e0565b9250828203905081811115613e0d57613e0c613db0565b5b92915050565b6000613e1e826134e0565b9150613e29836134e0565b9250828201905080821115613e4157613e40613db0565b5b92915050565b600081519050919050565b600082825260208201905092915050565b6000613e6e82613e47565b613e788185613e52565b9350613e8881856020860161344a565b613e9181613474565b840191505092915050565b6000608082019050613eb16000830187613575565b613ebe6020830186613575565b613ecb604083018561365e565b8181036060830152613edd8184613e63565b905095945050505050565b600081519050613ef78161339f565b92915050565b600060208284031215613f1357613f12613369565b5b6000613f2184828501613ee8565b91505092915050565b6000604082019050613f3f6000830185613575565b613f4c602083018461365e565b9392505050565b7f4e487b7100000000000000000000000000000000000000000000000000000000600052601260045260246000fd5b6000604082019050613f97600083018561365e565b613fa4602083018461365e565b9392505050565b613fb481613aab565b82525050565b6000608082019050613fcf60008301876136fa565b613fdc6020830186613fab565b613fe960408301856136fa565b613ff660608301846136fa565b95945050505050565b7f4e487b7100000000000000000000000000000000000000000000000000000000600052602160045260246000fd5b600060208201905061404360008301846136fa565b92915050565b6000614054826134e0565b915061405f836134e0565b92508261406f5761406e613f53565b5b828204905092915050565b600079ffffffffffffffffffffffffffffffffffffffffffffffffffff82169050919050565b60006140ab8261407a565b91506140b68361407a565b9250828203905079ffffffffffffffffffffffffffffffffffffffffffffffffffff8111156140e8576140e7613db0565b5b92915050565b6000819050919050565b600061411361410e614109846140ee565b613d4c565b613aab565b9050919050565b614123816140f8565b82525050565b600060408201905061413e600083018561411a565b61414b602083018461365e565b9392505050565b600061415d8261407a565b91506141688361407a565b9250828201905079ffffffffffffffffffffffffffffffffffffffffffffffffffff81111561419a57614199613db0565b5b92915050565b600060a0820190506141b560008301886136fa565b6141c260208301876136fa565b6141cf60408301866136fa565b6141dc606083018561365e565b6141e96080830184613575565b969550505050505056fea2646970667358221220618b11ff605afa23028cdbf67aac9ab215e3ac020e400859a4b099dada3c716e64736f6c63430008180033",
  "linkReferences": {},
  "deployedLinkReferences": {}
}